{
  "_format": "hh-sol-artifact-1",
  "contractName": "token",
  "sourceName": "contracts/token.sol",
  "abi": [
    {
      "inputs": [
        {
          "internalType": "uint256",
          "name": "totalSupply_",
          "type": "uint256"
        },
        {
          "internalType": "string",
          "name": "name_",
          "type": "string"
        },
        {
          "internalType": "string",
          "name": "symbol_",
          "type": "string"
        },
        {
          "internalType": "uint256",
          "name": "decimals_",
          "type": "uint256"
        }
      ],
      "stateMutability": "nonpayable",
      "type": "constructor"
    },
    {
      "anonymous": false,
      "inputs": [
        {
          "indexed": true,
          "internalType": "address",
          "name": "owner",
          "type": "address"
        },
        {
          "indexed": true,
          "internalType": "address",
          "name": "spender",
          "type": "address"
        },
        {
          "indexed": false,
          "internalType": "uint256",
          "name": "value",
          "type": "uint256"
        }
      ],
      "name": "Approval",
      "type": "event"
    },
    {
      "anonymous": false,
      "inputs": [
        {
          "indexed": true,
          "internalType": "address",
          "name": "from",
          "type": "address"
        },
        {
          "indexed": true,
          "internalType": "address",
          "name": "to",
          "type": "address"
        },
        {
          "indexed": false,
          "internalType": "uint256",
          "name": "value",
          "type": "uint256"
        }
      ],
      "name": "Transfer",
      "type": "event"
    },
    {
      "inputs": [
        {
          "internalType": "address",
          "name": "holder",
          "type": "address"
        },
        {
          "internalType": "address",
          "name": "spender",
          "type": "address"
        }
      ],
      "name": "allowance",
      "outputs": [
        {
          "internalType": "uint256",
          "name": "",
          "type": "uint256"
        }
      ],
      "stateMutability": "view",
      "type": "function"
    },
    {
      "inputs": [
        {
          "internalType": "address",
          "name": "spender",
          "type": "address"
        },
        {
          "internalType": "uint256",
          "name": "amount",
          "type": "uint256"
        }
      ],
      "name": "approve",
      "outputs": [
        {
          "internalType": "bool",
          "name": "",
          "type": "bool"
        }
      ],
      "stateMutability": "nonpayable",
      "type": "function"
    },
    {
      "inputs": [
        {
          "internalType": "address",
          "name": "account",
          "type": "address"
        }
      ],
      "name": "balanceof",
      "outputs": [
        {
          "internalType": "uint256",
          "name": "",
          "type": "uint256"
        }
      ],
      "stateMutability": "view",
      "type": "function"
    },
    {
      "inputs": [
        {
          "internalType": "uint256",
          "name": "quantity",
          "type": "uint256"
        }
      ],
      "name": "burn",
      "outputs": [
        {
          "internalType": "uint256",
          "name": "",
          "type": "uint256"
        }
      ],
      "stateMutability": "nonpayable",
      "type": "function"
    },
    {
      "inputs": [],
      "name": "decimal",
      "outputs": [
        {
          "internalType": "uint256",
          "name": "",
          "type": "uint256"
        }
      ],
      "stateMutability": "view",
      "type": "function"
    },
    {
      "inputs": [
        {
          "internalType": "uint256",
          "name": "quantity",
          "type": "uint256"
        }
      ],
      "name": "mint",
      "outputs": [
        {
          "internalType": "uint256",
          "name": "",
          "type": "uint256"
        }
      ],
      "stateMutability": "nonpayable",
      "type": "function"
    },
    {
      "inputs": [],
      "name": "name",
      "outputs": [
        {
          "internalType": "string",
          "name": "",
          "type": "string"
        }
      ],
      "stateMutability": "view",
      "type": "function"
    },
    {
      "inputs": [],
      "name": "symbol",
      "outputs": [
        {
          "internalType": "string",
          "name": "",
          "type": "string"
        }
      ],
      "stateMutability": "view",
      "type": "function"
    },
    {
      "inputs": [],
      "name": "totalSupply",
      "outputs": [
        {
          "internalType": "uint256",
          "name": "",
          "type": "uint256"
        }
      ],
      "stateMutability": "view",
      "type": "function"
    },
    {
      "inputs": [
        {
          "internalType": "address",
          "name": "recipient",
          "type": "address"
        },
        {
          "internalType": "uint256",
          "name": "amount",
          "type": "uint256"
        }
      ],
      "name": "transfer",
      "outputs": [
        {
          "internalType": "bool",
          "name": "",
          "type": "bool"
        }
      ],
      "stateMutability": "nonpayable",
      "type": "function"
    },
    {
      "inputs": [
        {
          "internalType": "address",
          "name": "sender",
          "type": "address"
        },
        {
          "internalType": "address",
          "name": "recipient",
          "type": "address"
        },
        {
          "internalType": "uint256",
          "name": "amount",
          "type": "uint256"
        }
      ],
      "name": "transferFrom",
      "outputs": [
        {
          "internalType": "bool",
          "name": "",
          "type": "bool"
        }
      ],
      "stateMutability": "nonpayable",
      "type": "function"
    }
  ],
  "bytecode": "0x60806040523480156200001157600080fd5b50604051620016303803806200163083398181016040528101906200003791906200024a565b83600281905550836000803373ffffffffffffffffffffffffffffffffffffffff1673ffffffffffffffffffffffffffffffffffffffff1681526020019081526020016000208190555082600390805190602001906200009992919062000105565b508160049080519060200190620000b292919062000105565b508060058190555033600660006101000a81548173ffffffffffffffffffffffffffffffffffffffff021916908373ffffffffffffffffffffffffffffffffffffffff16021790555050505050620004a2565b828054620001139062000399565b90600052602060002090601f01602090048101928262000137576000855562000183565b82601f106200015257805160ff191683800117855562000183565b8280016001018555821562000183579182015b828111156200018257825182559160200191906001019062000165565b5b50905062000192919062000196565b5090565b5b80821115620001b157600081600090555060010162000197565b5090565b6000620001cc620001c68462000323565b620002fa565b905082815260208101848484011115620001eb57620001ea62000468565b5b620001f884828562000363565b509392505050565b600082601f83011262000218576200021762000463565b5b81516200022a848260208601620001b5565b91505092915050565b600081519050620002448162000488565b92915050565b6000806000806080858703121562000267576200026662000472565b5b6000620002778782880162000233565b945050602085015167ffffffffffffffff8111156200029b576200029a6200046d565b5b620002a98782880162000200565b935050604085015167ffffffffffffffff811115620002cd57620002cc6200046d565b5b620002db8782880162000200565b9250506060620002ee8782880162000233565b91505092959194509250565b60006200030662000319565b9050620003148282620003cf565b919050565b6000604051905090565b600067ffffffffffffffff82111562000341576200034062000434565b5b6200034c8262000477565b9050602081019050919050565b6000819050919050565b60005b838110156200038357808201518184015260208101905062000366565b8381111562000393576000848401525b50505050565b60006002820490506001821680620003b257607f821691505b60208210811415620003c957620003c862000405565b5b50919050565b620003da8262000477565b810181811067ffffffffffffffff82111715620003fc57620003fb62000434565b5b80604052505050565b7f4e487b7100000000000000000000000000000000000000000000000000000000600052602260045260246000fd5b7f4e487b7100000000000000000000000000000000000000000000000000000000600052604160045260246000fd5b600080fd5b600080fd5b600080fd5b600080fd5b6000601f19601f8301169050919050565b620004938162000359565b81146200049f57600080fd5b50565b61117e80620004b26000396000f3fe608060405234801561001057600080fd5b50600436106100a95760003560e01c806342966c681161007157806342966c681461017a57806376809ce3146101aa57806395d89b41146101c8578063a0712d68146101e6578063a9059cbb14610216578063dd62ed3e14610246576100a9565b806306fdde03146100ae578063095ea7b3146100cc57806318160ddd146100fc57806323b872dd1461011a5780633d64125b1461014a575b600080fd5b6100b6610276565b6040516100c39190610e38565b60405180910390f35b6100e660048036038101906100e19190610d13565b610308565b6040516100f39190610e1d565b60405180910390f35b61010461031f565b6040516101119190610e9a565b60405180910390f35b610134600480360381019061012f9190610cc0565b610329565b6040516101419190610e1d565b60405180910390f35b610164600480360381019061015f9190610c53565b6105b0565b6040516101719190610e9a565b60405180910390f35b610194600480360381019061018f9190610d53565b6105f8565b6040516101a19190610e9a565b60405180910390f35b6101b26106bd565b6040516101bf9190610e9a565b60405180910390f35b6101d06106c7565b6040516101dd9190610e38565b60405180910390f35b61020060048036038101906101fb9190610d53565b610759565b60405161020d9190610e9a565b60405180910390f35b610230600480360381019061022b9190610d13565b61082d565b60405161023d9190610e1d565b60405180910390f35b610260600480360381019061025b9190610c80565b610993565b60405161026d9190610e9a565b60405180910390f35b60606003805461028590610fd6565b80601f01602080910402602001604051908101604052809291908181526020018280546102b190610fd6565b80156102fe5780601f106102d3576101008083540402835291602001916102fe565b820191906000526020600020905b8154815290600101906020018083116102e157829003601f168201915b5050505050905090565b6000610315338484610a1a565b6001905092915050565b6000600254905090565b600080600160008673ffffffffffffffffffffffffffffffffffffffff1673ffffffffffffffffffffffffffffffffffffffff16815260200190815260200160002060003373ffffffffffffffffffffffffffffffffffffffff1673ffffffffffffffffffffffffffffffffffffffff168152602001908152602001600020549050826000808773ffffffffffffffffffffffffffffffffffffffff1673ffffffffffffffffffffffffffffffffffffffff16815260200190815260200160002054101580156103f95750828110155b61040257600080fd5b826000808673ffffffffffffffffffffffffffffffffffffffff1673ffffffffffffffffffffffffffffffffffffffff16815260200190815260200160002060008282546104509190610ed1565b92505081905550826000808773ffffffffffffffffffffffffffffffffffffffff1673ffffffffffffffffffffffffffffffffffffffff16815260200190815260200160002060008282546104a59190610f27565b9250508190555082600160008773ffffffffffffffffffffffffffffffffffffffff1673ffffffffffffffffffffffffffffffffffffffff16815260200190815260200160002060003373ffffffffffffffffffffffffffffffffffffffff1673ffffffffffffffffffffffffffffffffffffffff16815260200190815260200160002060008282546105389190610f27565b925050819055508373ffffffffffffffffffffffffffffffffffffffff168573ffffffffffffffffffffffffffffffffffffffff167fddf252ad1be2c89b69c2b068fc378daa952ba7f163c4a11628f55a4df523b3ef8560405161059c9190610e9a565b60405180910390a360019150509392505050565b60008060008373ffffffffffffffffffffffffffffffffffffffff1673ffffffffffffffffffffffffffffffffffffffff168152602001908152602001600020549050919050565b6000816000803373ffffffffffffffffffffffffffffffffffffffff1673ffffffffffffffffffffffffffffffffffffffff16815260200190815260200160002054101561064557600080fd5b81600260008282546106579190610f27565b92505081905550816000803373ffffffffffffffffffffffffffffffffffffffff1673ffffffffffffffffffffffffffffffffffffffff16815260200190815260200160002060008282546106ac9190610f27565b925050819055506002549050919050565b6000600554905090565b6060600480546106d690610fd6565b80601f016020809104026020016040519081016040528092919081815260200182805461070290610fd6565b801561074f5780601f106107245761010080835404028352916020019161074f565b820191906000526020600020905b81548152906001019060200180831161073257829003601f168201915b5050505050905090565b6000600660009054906101000a900473ffffffffffffffffffffffffffffffffffffffff1673ffffffffffffffffffffffffffffffffffffffff163373ffffffffffffffffffffffffffffffffffffffff16146107b557600080fd5b81600260008282546107c79190610ed1565b92505081905550816000803373ffffffffffffffffffffffffffffffffffffffff1673ffffffffffffffffffffffffffffffffffffffff168152602001908152602001600020600082825461081c9190610ed1565b925050819055506002549050919050565b60008060003373ffffffffffffffffffffffffffffffffffffffff1673ffffffffffffffffffffffffffffffffffffffff1681526020019081526020016000205482111561087a57600080fd5b816000803373ffffffffffffffffffffffffffffffffffffffff1673ffffffffffffffffffffffffffffffffffffffff16815260200190815260200160002060008282546108c89190610f27565b92505081905550816000808573ffffffffffffffffffffffffffffffffffffffff1673ffffffffffffffffffffffffffffffffffffffff168152602001908152602001600020600082825461091d9190610ed1565b925050819055508273ffffffffffffffffffffffffffffffffffffffff163373ffffffffffffffffffffffffffffffffffffffff167fddf252ad1be2c89b69c2b068fc378daa952ba7f163c4a11628f55a4df523b3ef846040516109819190610e9a565b60405180910390a36001905092915050565b6000600160008473ffffffffffffffffffffffffffffffffffffffff1673ffffffffffffffffffffffffffffffffffffffff16815260200190815260200160002060008373ffffffffffffffffffffffffffffffffffffffff1673ffffffffffffffffffffffffffffffffffffffff16815260200190815260200160002054905092915050565b600073ffffffffffffffffffffffffffffffffffffffff168373ffffffffffffffffffffffffffffffffffffffff161415610a8a576040517f08c379a0000000000000000000000000000000000000000000000000000000008152600401610a8190610e7a565b60405180910390fd5b600073ffffffffffffffffffffffffffffffffffffffff168273ffffffffffffffffffffffffffffffffffffffff161415610afa576040517f08c379a0000000000000000000000000000000000000000000000000000000008152600401610af190610e5a565b60405180910390fd5b8060016000600660009054906101000a900473ffffffffffffffffffffffffffffffffffffffff1673ffffffffffffffffffffffffffffffffffffffff1673ffffffffffffffffffffffffffffffffffffffff16815260200190815260200160002060008473ffffffffffffffffffffffffffffffffffffffff1673ffffffffffffffffffffffffffffffffffffffff168152602001908152602001600020819055508173ffffffffffffffffffffffffffffffffffffffff16600660009054906101000a900473ffffffffffffffffffffffffffffffffffffffff1673ffffffffffffffffffffffffffffffffffffffff167f8c5be1e5ebec7d5bd14f71427d1e84f3dd0314c0f7b2291e5b200ac8c7c3b92583604051610c1c9190610e9a565b60405180910390a3505050565b600081359050610c388161111a565b92915050565b600081359050610c4d81611131565b92915050565b600060208284031215610c6957610c68611066565b5b6000610c7784828501610c29565b91505092915050565b60008060408385031215610c9757610c96611066565b5b6000610ca585828601610c29565b9250506020610cb685828601610c29565b9150509250929050565b600080600060608486031215610cd957610cd8611066565b5b6000610ce786828701610c29565b9350506020610cf886828701610c29565b9250506040610d0986828701610c3e565b9150509250925092565b60008060408385031215610d2a57610d29611066565b5b6000610d3885828601610c29565b9250506020610d4985828601610c3e565b9150509250929050565b600060208284031215610d6957610d68611066565b5b6000610d7784828501610c3e565b91505092915050565b610d8981610f6d565b82525050565b6000610d9a82610eb5565b610da48185610ec0565b9350610db4818560208601610fa3565b610dbd8161106b565b840191505092915050565b6000610dd5602283610ec0565b9150610de08261107c565b604082019050919050565b6000610df8602483610ec0565b9150610e03826110cb565b604082019050919050565b610e1781610f99565b82525050565b6000602082019050610e326000830184610d80565b92915050565b60006020820190508181036000830152610e528184610d8f565b905092915050565b60006020820190508181036000830152610e7381610dc8565b9050919050565b60006020820190508181036000830152610e9381610deb565b9050919050565b6000602082019050610eaf6000830184610e0e565b92915050565b600081519050919050565b600082825260208201905092915050565b6000610edc82610f99565b9150610ee783610f99565b9250827fffffffffffffffffffffffffffffffffffffffffffffffffffffffffffffffff03821115610f1c57610f1b611008565b5b828201905092915050565b6000610f3282610f99565b9150610f3d83610f99565b925082821015610f5057610f4f611008565b5b828203905092915050565b6000610f6682610f79565b9050919050565b60008115159050919050565b600073ffffffffffffffffffffffffffffffffffffffff82169050919050565b6000819050919050565b60005b83811015610fc1578082015181840152602081019050610fa6565b83811115610fd0576000848401525b50505050565b60006002820490506001821680610fee57607f821691505b6020821081141561100257611001611037565b5b50919050565b7f4e487b7100000000000000000000000000000000000000000000000000000000600052601160045260246000fd5b7f4e487b7100000000000000000000000000000000000000000000000000000000600052602260045260246000fd5b600080fd5b6000601f19601f8301169050919050565b7f45524332303a20617070726f766520746f20746865207a65726f20616464726560008201527f7373000000000000000000000000000000000000000000000000000000000000602082015250565b7f45524332303a20617070726f76652066726f6d20746865207a65726f2061646460008201527f7265737300000000000000000000000000000000000000000000000000000000602082015250565b61112381610f5b565b811461112e57600080fd5b50565b61113a81610f99565b811461114557600080fd5b5056fea2646970667358221220e50662b58184aa907ba0c32f3e324514d438124c8cdeab1e2c2c052275ede47c64736f6c63430008070033",
  "linkReferences": {},
  "deployedLinkReferences": {}
}